:100000000C94BF010C94DE010C94DE010C94DE0113
:100010000C94DE010C94DE010C94DE010C94DE01E4
:100020000C94DE010C94DE010C94DE010C94DE01D4
:100030000C94DE010C94DE010C94DE010C94DE01C4
:100040000C94DE010C94DE010C94DE010C94DE01B4
:100050000C94DE010C9440070C94DE010C94DE013C
:100060000C94DE010C94DE010C94DE010C94DE0194
:100070000C94DE010C94DE010C94DE010C94DE0184
:100080000C94DE010C94DE010C94DE016E616E00B6
:10009000696E6600000000000000002F00000007ED
:1000A000000700147F147F14242A7F2A1232340898
:1000B000162636495522500005030000001C224137
:1000C000000041221C0014083E081408083E0808DD
:1000D0000000503000101010101000606000002070
:1000E000100804023E5149453E00427F40004261F3
:1000F0005149462141454B311814127F102745457F
:1001000045393C4A49493001710905033649494995
:1001100036064949291E00363600000056360000D2
:10012000081422410014141414140041221408026B
:1001300001510906324959513E7E1111117E7F4904
:100140004949363E414141227F4141221C7F494974
:1001500049417F090909013E4149497A7F08080858
:100160007F00417F41002040413F017F0814224130
:100170007F404040407F020C027F7F0408107F3E9A
:100180004141413E7F090909063E4151215E7F09F7
:10019000192946464949493101017F01013F404043
:1001A000403F1F2040201F3F4038403F6314081449
:1001B0006307087008076151494543007F414100CA
:1001C000552A552A550041417F000402010204408E
:1001D00040404040000102040020545454787F48BD
:1001E0004444383844444420384444487F385454C4
:1001F0005418087E0901020C5252523E7F08040432
:100200007800447D40002040443D007F1028440099
:1002100000417F40007C041804787C08040478388E
:10022000444444387C14141408081414187C7C08C2
:100230000404084854545420043F4440203C4040A7
:10024000207C1C2040201C3C4030403C442810288E
:10025000440C5050503C4464544C44007F3E1C08B5
:10026000081C3E7F00087C7E7C08103E7E3E103ECF
:100270003E3E3E3E007F3E1C080E1111110E7F00D7
:1002800000000000407A10F35A00A0724E180900D6
:1002900010A5D4E80000E87648170000E40B5402EB
:1002A0000000CA9A3B000000E1F505000080969826
:1002B00000000040420F000000A086010000001076
:1002C0002700000000E803000000006400000000B8
:1002D000000A00000000000100000000002C76D899
:1002E00088DC674F0823DFC1DFAE59E1B1B796E57F
:1002F000E3E453C63AE651997696E8E6C28426EBE3
:10030000898C9B62ED407C6FFCEFBC9C9F40F2BAF5
:10031000A56FA5F490055A2AF75C936B6CF9676D8D
:10032000C11BFCE0E40D47FEF520E6B500D0ED90E2
:100330002E0300943577050080841E080000204EAF
:100340000A000000C80C333333330F986E12831148
:1003500041EF8D2114893BE65516CFFEE6DB18D11F
:10036000844B381BF77C1D901DA4BBE424203284F1
:10037000725E228100C9F124ECA1E53D2700112421
:100380001FBECFEFD0E1DEBFCDBF12E0A0E0B1E0F5
:10039000E8EDF3E300E00BBF02C007900D92A83236
:1003A000B107D9F712E1A8E2B2E001C01D92AC3466
:1003B000B107E1F70E94E0010C94EA190C940000E7
:1003C000DF93CF93CDB7DEB76E970FB6F894DEBF4D
:1003D0000FBECDBFA1E3B0E0E1E3F0E08081807E1D
:1003E0008C9381E090E090933B0280933A0281E00D
:1003F00090E09093410280934002A6E2B0E0E6E2F2
:10040000F0E0808184608C93A6E2B0E0E6E2F0E068
:10041000808182608C93A7E2B0E0E7E2F0E0808127
:1004200080628C93A7E2B0E0E7E2F0E080818F7B0E
:100430008C93A7E2B0E0E7E2F0E080818F778C93C5
:10044000A6E2B0E0E6E2F0E0808188608C93A6E26C
:10045000B0E0E6E2F0E0808180688C9378940E94BE
:10046000C7070E94840981E090E09093390280934D
:100470003802109243021092420280913802909109
:100480003902282F8091420290914302982F822FA7
:10049000692F0E94E30984E80E94220A0E947903DE
:1004A000E0E3F0E08081882F90E080719070009709
:1004B00009F080C020913A0230913B0281E090E047
:1004C000821B930B90933B0280933A020E945A0442
:1004D00080E090E0A0EFB1E4898F9A8FAB8FBC8F62
:1004E000698D7A8D8B8D9C8D20E030E04AE753E456
:1004F0000E94620FDC01CB018D8B9E8BAF8BB88F7E
:100500006D897E898F89988D20E030E040E85FE337
:100510000E94681188232CF481E090E09C8B8B8BE7
:100520003FC06D897E898F89988D20E03FEF4FE72E
:1005300057E40E94081118164CF5698D7A8D8B8D41
:100540009C8D20E030E040E251E40E94620FDC012B
:10055000CB01BC01CD010E948C0DDC01CB019C8B39
:100560008B8B0FC089E190E09A8B898B89899A895E
:100570000197F1F79A8B898B8B899C8901979C8BCA
:100580008B8B8B899C89009769F714C06D897E8954
:100590008F89988D0E948C0DDC01CB019C8B8B8BFD
:1005A0008B899C89988B8F878F8598890197F1F724
:1005B000988B8F8780913A0290913B028130910510
:1005C00011F40E94DE03E0E3F0E08081882F90E0E8
:1005D00084709070009709F080C0209140023091A3
:1005E000410281E090E0821B930B90934102809343
:1005F00040020E945A0480E090E0A0EFB1E48B87B3
:100600009C87AD87BE876B857C858D859E8520E028
:1006100030E04AE753E40E94620FDC01CB018F8394
:100620009887A987BA876F81788589859A8520E020
:1006300030E040E85FE30E94681188232CF481E0F9
:1006400090E09E838D833FC06F81788589859A85F0
:1006500020E03FEF4FE757E40E94081118164CF5D1
:100660006B857C858D859E8520E030E040E251E4FD
:100670000E94620FDC01CB01BC01CD010E948C0DF8
:10068000DC01CB019E838D830FC089E190E09C83C8
:100690008B838B819C810197F1F79C838B838D8168
:1006A0009E8101979E838D838D819E81009769F73E
:1006B00014C06F81788589859A850E948C0DDC0134
:1006C000CB019E838D838D819E819A8389838981CD
:1006D0009A810197F1F79A838983809140029091E2
:1006E0004102009709F4DACE0E9479040E94E205E3
:1006F000D5CEDF93CF9300D000D0CDB7DEB781E069
:1007000060E00E94E30984E90E94220A85E160E03A
:100710000E94E30986E90E94220A85E167E00E94BF
:10072000E30988E90E94220A81E067E00E94E30968
:100730008AE90E94220A82E090E09C838B8313C0A6
:100740008B8160E00E94E30985E90E94220A8B8187
:1007500067E00E94E30989E90E94220A8B819C815B
:1007600001969C838B838B819C818531910544F319
:1007700081E090E09A83898315C0998185E1692F92
:100780000E94E30987E90E94220A998181E0692F8A
:100790000E94E3098BE90E94220A89819A810196CD
:1007A0009A83898389819A818730910534F30F90E8
:1007B0000F900F900F90CF91DF910895DF93CF931B
:1007C000CDB7DEB72F970FB6F894DEBF0FBECDBF03
:1007D0008091400290914102009709F462C02091FB
:1007E00028023091290240912A0250912B028DB7A4
:1007F0009EB708970FB6F8949EBF0FBE8DBFEDB79A
:10080000FEB73196CE0101969183808380E091E01E
:100810009383828324833583468357830E945B19A5
:100820008DB79EB708960FB6F8949EBF0FBE8DBFCA
:1008300087E061E00E94E309CE0101960E94E40A8C
:1008400020913002309131024091320250913302B6
:100850008DB79EB708970FB6F8949EBF0FBE8DBF99
:10086000EDB7FEB73196CE0101969183808389E082
:1008700091E09383828324833583468357830E9448
:100880005B198DB79EB708960FB6F8949EBF0FBE42
:100890008DBF87E062E00E94E309CE0101960E94CD
:1008A000E40A2F960FB6F894DEBF0FBECDBFCF91EE
:1008B000DF910895DF93CF93CDB7DEB787E061E096
:1008C0000E94E30982E191E00E94E40A87E062E08D
:1008D0000E94E30982E191E00E94E40A87E063E07C
:1008E0000E94E30982E191E00E94E40ACF91DF9146
:1008F0000895DF93CF93CDB7DEB76C970FB6F8941A
:10090000DEBF0FBECDBFA7E2B0E0E7E2F0E080813E
:100910008E7F8C93A7E2B0E0E7E2F0E080818D7FEC
:100920008C93A6E2B0E0E6E2F0E0808180648C93F4
:1009300080E090E0A0E8BFE3898F9A8FAB8FBC8FF7
:10094000698D7A8D8B8D9C8D20E030E04AE753E4F1
:100950000E94620FDC01CB018D8B9E8BAF8BB88F19
:100960006D897E898F89988D20E030E040E85FE3D3
:100970000E94681188232CF481E090E09C8B8B8B83
:100980003FC06D897E898F89988D20E03FEF4FE7CA
:1009900057E40E94081118164CF5698D7A8D8B8DDD
:1009A0009C8D20E030E040E251E40E94620FDC01C7
:1009B000CB01BC01CD010E948C0DDC01CB019C8BD5
:1009C0008B8B0FC089E190E09A8B898B89899A89FA
:1009D0000197F1F79A8B898B8B899C8901979C8B66
:1009E0008B8B8B899C89009769F714C06D897E89F0
:1009F0008F89988D0E948C0DDC01CB019C8B8B8B99
:100A00008B899C89988B8F878F8598890197F1F7BF
:100A1000988B8F8780912C0290912D02A0912E02AD
:100A2000B0912F02BC01CD0120E030E040EA50E45B
:100A30000E94620FDC01CB01BC01CD0120E030E05F
:100A400040E854E40E945C10DC01CB018093280252
:100A500090932902A0932A02B0932B02A7E2B0E060
:100A6000E7E2F0E0808181608C93A7E2B0E0E7E20A
:100A7000F0E080818D7F8C93A6E2B0E0E6E2F0E0CA
:100A8000808180648C9380E090E0A0E8BFE38B8756
:100A90009C87AD87BE876B857C858D859E8520E094
:100AA00030E04AE753E40E94620FDC01CB018F8300
:100AB0009887A987BA876F81788589859A8520E08C
:100AC00030E040E85FE30E94681188232CF481E065
:100AD00090E09E838D833FC06F81788589859A855C
:100AE00020E03FEF4FE757E40E94081118164CF53D
:100AF0006B857C858D859E8520E030E040E251E469
:100B00000E94620FDC01CB01BC01CD010E948C0D63
:100B1000DC01CB019E838D830FC089E190E09C8333
:100B20008B838B819C810197F1F79C838B838D81D3
:100B30009E8101979E838D838D819E81009769F7A9
:100B400014C06F81788589859A850E948C0DDC019F
:100B5000CB019E838D838D819E819A838983898138
:100B60009A810197F1F79A83898380912C02909161
:100B70002D02A0912E02B0912F02BC01CD0120E0E8
:100B800030E040EA50E40E94620FDC01CB01BC017E
:100B9000CD0120E030E040E854E40E945C10DC012C
:100BA000CB018093300290933102A0933202B09334
:100BB00033026C960FB6F894DEBF0FBECDBFCF9157
:100BC000DF910895DF93CF93CDB7DEB728970FB6A7
:100BD000F894DEBF0FBECDBF8091400290914102DC
:100BE000009709F444C18091280290912902A091B4
:100BF0002A02B0912B021886BC01CD012AE939E9FD
:100C000049E150E40E946811882314F481E0888748
:100C100080913802909139021F828230910514F040
:100C200091E09F8388859F818923882369F1809142
:100C300038029091390201979093390280933802DB
:100C40008091380290913902282F80914202909130
:100C50004302982F822F692F0E94E30984E80E94A3
:100C6000220A8091380290913902282F2F5F8091BB
:100C7000420290914302982F822F692F0E94E3092C
:100C80008DE191E00E94E40A80912802909129026E
:100C9000A0912A02B0912B021E82BC01CD012AE94B
:100CA00039E949E350E40E940811181614F481E070
:100CB0008E8380913802909139021D828531910591
:100CC00014F491E09D838E819D818923882369F1AD
:100CD0008091380290913902019690933902809365
:100CE00038028091380290913902282F8091420277
:100CF00090914302982F822F692F0E94E30984E884
:100D00000E94220A8091380290913902282F2150A6
:100D10008091420290914302982F822F692F0E9466
:100D2000E3098DE191E00E94E40A80913002909104
:100D30003102A0913202B09133021C82BC01CD017C
:100D40002AE939E949E150E40E946811882314F442
:100D500081E08C8380914202909143021B8218169D
:100D6000190614F491E09B838C819B81892388234D
:100D700069F180914202909143020197909343025E
:100D8000809342028091380290913902282F8091FD
:100D9000420290914302982F822F692F0E94E3090B
:100DA00084E80E94220A8091380290913902282F0B
:100DB0008091420290914302982F9F5F822F692F6A
:100DC0000E94E3098DE191E00E94E40A80913002E3
:100DD00090913102A0913202B09133021A82BC018B
:100DE000CD012AE939E949E350E40E9408111816B7
:100DF00014F481E08A838091420290914302198227
:100E00008730910514F491E099838A81998189232F
:100E1000882369F180914202909143020196909358
:100E20004302809342028091380290913902282F28
:100E30008091420290914302982F822F692F0E9445
:100E4000E30984E80E94220A8091380290913902D5
:100E5000282F8091420290914302982F9150822F27
:100E6000692F0E94E3098DE191E00E94E40A28962F
:100E70000FB6F894DEBF0FBECDBFCF91DF910895BE
:100E80001F920F920FB60F9200905B000F921124E9
:100E90002F933F934F935F936F937F938F939F9382
:100EA000AF93BF93EF93FF93DF93CF9300D0CDB772
:100EB000DEB7F894E4E2F0E080818295869586952D
:100EC00083708A83E5E2F0E0808189838A81282F1C
:100ED00030E08981882F90E0880F991F880F991F33
:100EE000822B932BAA2797FDA095BA2F80933C02C3
:100EF00090933D02A0933E02B0933F0280913C024A
:100F000090913D02A0913E02B0913F029370A0707B
:100F1000B07080933C0290933D02A0933E02B09348
:100F20003F0280913C0290913D02A0913E02B0911F
:100F30003F02BC01CD010E94EC11DC01CB0180938A
:100F40002C0290932D02A0932E02B0932F0278943E
:100F5000A6E2B0E0E6E2F0E0808180648C930F903E
:100F60000F90CF91DF91FF91EF91BF91AF919F9142
:100F70008F917F916F915F914F913F912F910F9042
:100F800000925B000F900FBE0F901F901895DF939B
:100F9000CF93CDB7DEB7AA970FB6F894DEBF0FBEDA
:100FA000CDBFA5E3B0E0E5E3F0E0808181608C9304
:100FB000A4E3B0E0E4E3F0E080818F618C9380E013
:100FC00090E0A0E7B1E48FA398A7A9A7BAA76FA163
:100FD00078A589A59AA520E030E04AE753E40E946D
:100FE000620FDC01CB018BA39CA3ADA3BEA36BA1BD
:100FF0007CA18DA19EA120E030E040E85FE30E944B
:10100000681188232CF481E090E09AA389A33FC063
:101010006BA17CA18DA19EA120E03FEF4FE757E49B
:101020000E94081118164CF56FA178A589A59AA5FC
:1010300020E030E040E251E40E94620FDC01CB018D
:10104000BC01CD010E948C0DDC01CB019AA389A3C8
:101050000FC089E190E098A38F8F8F8D98A10197A1
:10106000F1F798A38F8F89A19AA101979AA389A3D9
:1010700089A19AA1009769F714C06BA17CA18DA1E9
:101080009EA10E948C0DDC01CB019AA389A389A1AA
:101090009AA19E8F8D8F8D8D9E8D0197F1F79E8FDA
:1010A0008D8FA5E3B0E0E5E3F0E080818E7F8C9347
:1010B00080E090E0A0E7B1E4898F9A8FAB8FBC8F7E
:1010C000698D7A8D8B8D9C8D20E030E04AE753E46A
:1010D0000E94620FDC01CB018D8B9E8BAF8BB88F92
:1010E0006D897E898F89988D20E030E040E85FE34C
:1010F0000E94681188232CF481E090E09C8B8B8BFC
:101100003FC06D897E898F89988D20E03FEF4FE742
:1011100057E40E94081118164CF5698D7A8D8B8D55
:101120009C8D20E030E040E251E40E94620FDC013F
:10113000CB01BC01CD010E948C0DDC01CB019C8B4D
:101140008B8B0FC089E190E09A8B898B89899A8972
:101150000197F1F79A8B898B8B899C8901979C8BDE
:101160008B8B8B899C89009769F714C06D897E8968
:101170008F89988D0E948C0DDC01CB019C8B8B8B11
:101180008B899C89988B8F878F8598890197F1F738
:10119000988B8F87A5E3B0E0E5E3F0E08081816084
:1011A0008C9380E090E0A0E7B1E48B879C87AD87CB
:1011B000BE876B857C858D859E8520E030E04AE783
:1011C00053E40E94620FDC01CB018F839887A987CB
:1011D000BA876F81788589859A8520E030E040E87C
:1011E0005FE30E94681188232CF481E090E09E83E5
:1011F0008D833FC06F81788589859A8520E03FEF98
:101200004FE757E40E94081118164CF56B857C8552
:101210008D859E8520E030E040E251E40E94620F1F
:10122000DC01CB01BC01CD010E948C0DDC01CB01A6
:101230009E838D830FC089E190E09C838B838B819B
:101240009C810197F1F79C838B838D819E8101970F
:101250009E838D838D819E81009769F714C06F8175
:10126000788589859A850E948C0DDC01CB019E834F
:101270008D838D819E819A83898389819A8101974B
:10128000F1F79A838983A5E3B0E0E5E3F0E080819C
:1012900082608C938BEE60E00E942A0B83E260E018
:1012A0000E942A0B81E860E00E942A0B84E660E03D
:1012B0000E942A0B8FEA60E00E942A0B8CEC60E00F
:1012C0000E942A0B0E948409AA960FB6F894DEBFEA
:1012D0000FBECDBFCF91DF910895DF93CF930F92D3
:1012E000CDB7DEB7898381E260E00E942A0B898155
:1012F000806860E00E942A0B80E260E00E942A0B76
:101300000F90CF91DF910895DF93CF9300D000D05D
:10131000CDB7DEB71C821B8236C08B81806B60E04C
:101320000E942A0B80E160E00E942A0B80E060E0CE
:101330000E942A0B1A8219821CC080E061E00E9480
:101340002A0B89819A812B813C81880F991F880FF4
:10135000991F880F991F820F931F880F991FFC01F7
:10136000E65BFD4F1182108289819A8101969A83F2
:10137000898389819A8180389105FCF28B819C81D7
:1013800001969C838B838B819C81883091052CF204
:1013900080EB60E00E942A0B80E160E00E942A0B53
:1013A00080E060E00E942A0B10924B0A10924A0AD9
:1013B00010924902109248020F900F900F900F90D8
:1013C000CF91DF910895DF93CF9300D0CDB7DEB7F3
:1013D00089836A838981282F30E0C901880F991F8A
:1013E000820F931F880F991F90934B0A80934A0A8C
:1013F0008A81882F90E090934902809348020E944E
:10140000010B0F900F90CF91DF910895DF93CF9351
:1014100000D0CDB7DEB789836A838981882F90E0B9
:1014200090934B0A80934A0A8A81882F90E0909388
:101430004902809348020E94010B0F900F90CF91B8
:10144000DF910895DF93CF9300D000D00F92CDB7F6
:10145000DEB78D830E94010B1C8221C08D81282F55
:1014600030E0C901880F991F880F991F280F391F75
:101470008C81882F90E0820F931F805A90408C5669
:101480009F4F9B838A83EA81FB8184918983898131
:10149000880F61E00E942A0B8C818F5F8C838C8186
:1014A0008530E0F280E061E00E942A0B80914A0AD8
:1014B00090914B0A069690934B0A80934A0A0F909C
:1014C0000F900F900F900F90CF91DF910895DF93C1
:1014D000CF93CDB7DEB727970FB6F894DEBF0FBE18
:1014E000CDBF8C836D834E838D8186958695869541
:1014F0008B838C81482F50E08B81282F30E0CA01EC
:10150000880F991F880F991F880F991F820F931FAB
:10151000880F991FFC01E65BFD4F808191818A83D2
:101520008E81882399F08D81882F90E09C0127700F
:10153000307081E090E0022E02C0880F991F0A945B
:10154000E2F7982F8A81892B8F8312C08D81882F93
:1015500090E09C012770307081E090E002C0880F1D
:10156000991F2A95E2F7982F90958A8189238F8376
:101570008F8189838C816B810E94060A898161E059
:101580000E942A0B8C81482F50E08B81282F30E05D
:101590008981682F70E0CA01880F991F880F991FF1
:1015A000880F991F820F931F880F991FFC01E65B1C
:1015B000FD4F7183608327960FB6F894DEBF0FBE90
:1015C000CDBFCF91DF910895DF93CF9300D0CDB7FA
:1015D000DEB79A8389830BC0E981FA8120818981F2
:1015E0009A8101969A838983822F0E94220AE98137
:1015F000FA818081882381F70F900F90CF91DF913E
:101600000895DF93CF93CDB7DEB7809148029091D4
:101610004902806B60E00E942A0B80914A0A9091F7
:101620004B0A8F7060E00E942A0B80914A0A9091C9
:101630004B0A807F907095958795959587959595A0
:10164000879595958795806160E00E942A0BCF91E0
:10165000DF910895DF93CF9300D000D0CDB7DEB7F0
:101660008B836C83A4E3B0E0E4E3F0E080818C60E2
:101670008C93A5E3B0E0E5E3F0E080818D7F8C936F
:101680008C81813041F4A5E3B0E0E5E3F0E08081B6
:1016900084608C9307C0A5E3B0E0E5E3F0E08081CF
:1016A0008B7F8C9319823DC08B81482F50E08981BC
:1016B000282F30E087E090E0821B930B9A0102C054
:1016C000359527958A95E2F7C90181709070882336
:1016D00041F0A5E3B0E0E5E3F0E0808188608C9321
:1016E00007C0A5E3B0E0E5E3F0E08081877F8C935D
:1016F000A5E3B0E0E5E3F0E0808180618C931A829D
:1017000003C08A818F5F8A838A818430D0F3A5E306
:10171000B0E0E5E3F0E080818F7E8C9389818F5F7C
:1017200089838981883008F4BFCFA5E3B0E0E5E381
:10173000F0E0808182608C93A4E3B0E0E4E3F0E029
:101740008081837F8C93A5E3B0E0E5E3F0E08081C6
:101750008C608C930F900F900F900F90CF91DF9132
:101760000895DF93CF9300D0CDB7DEB70E94C707AF
:101770000E9484091A823BC0198233C08A81482F93
:1017800050E08981282F30E0CA0100249695879582
:101790000794969587950794982F802D820F931F15
:1017A000880F991FFC01E45BF54F10828A81482F56
:1017B00050E08981282F30E0CA0100249695879552
:1017C0000794969587950794982F802D820F931FE5
:1017D000880F991FFC01E35BF54F108289818F5FB1
:1017E00089838981803450F28A818F5F8A838A81DC
:1017F000803110F20F900F90CF91DF910895DF9319
:10180000CF93CDB7DEB729970FB6F894DEBF0FBEE2
:10181000CDBF1986D2C01886C9C08885482F50E030
:101820008985282F30E0CA01002496958795079472
:10183000969587950794982F802D820F931F880F78
:10184000991FFC01E45BF54F8081882F90E09F8316
:101850008E838885482F50E08985282F30E0CA0183
:101860000024969587950794969587950794982FC9
:10187000802D820F931F880F991FFC01E35BF54FAA
:101880008081882F90E09D838C832E813F818C8185
:101890009D81822793279B838A838A819B810097DE
:1018A00009F481C019824BC08981282F30E081E082
:1018B00090E002C0880F991F2A95E2F79C018A8167
:1018C0009B81822393230097B9F18985882F90E02B
:1018D000880F991F880F991F880F991F982F89814A
:1018E000692F680F8885482F50E08985282F30E0C0
:1018F000CA01002496958795079496958795079435
:10190000982F802D820F931F880F991FFC01E35B96
:10191000F54F8081482F8981282F30E081E090E0C9
:1019200002C0880F991F2A95E2F78423982F862FEB
:101930006885492F0E94670A89818F5F8983898121
:10194000883008F4B1CF8885682F70E08985A82F8A
:10195000B0E08885482F50E08985282F30E0CA0103
:101960000024969587950794969587950794982FC8
:10197000802D820F931F880F991FFC01E35BF54FA9
:101980002081CB010024969587950794969587959D
:101990000794982F802D8A0F9B1F880F991FFC0199
:1019A000E45BF54F208388858F5F8887888588234F
:1019B0000CF033CF89858F5F89878985883008F45B
:1019C0002ACF29960FB6F894DEBF0FBECDBFCF91B8
:1019D000DF910895DF93CF9300D00F92CDB7DEB79C
:1019E00089836A834B838B81882309F444C08A816D
:1019F000982F969596959695692F70E08981A82FD6
:101A0000B0E0492F50E08981282F30E0CA0100243E
:101A1000969587950794969587950794982F802D8E
:101A2000820F931F880F991FFC01E35BF54F8081A4
:101A3000482F8A81882F90E09C012770307081E0C8
:101A400090E002C0880F991F2A95E2F7842B282F77
:101A5000CB010024969587950794969587950794D2
:101A6000982F802D8A0F9B1F880F991FFC01E35B25
:101A7000F54F208344C08A81982F96959695969528
:101A8000A92FB0E08981682F70E0492F50E089814B
:101A9000282F30E0CA0100249695879507949695E3
:101AA00087950794982F802D820F931F880F991F79
:101AB000FC01E35BF54F8081482F8A81882F90E0FD
:101AC0009C012770307081E090E002C0880F991F60
:101AD0002A95E2F780958423282FCD01002496953E
:101AE00087950794969587950794982F802D860F54
:101AF000971F880F991FFC01E35BF54F20830F9020
:101B00000F900F90CF91DF910895DF93CF93CDB7D2
:101B1000DEB7CF91DF910895EF92FF920F931F935D
:101B20007B018C0120E030E040E05FE40E9438114E
:101B300088238CF0C801B70120E030E040E05FE48A
:101B40000E94040F0E9498119B01AC01205030406C
:101B50004040504806C0C801B7010E9498119B013F
:101B6000AC01B901CA011F910F91FF90EF90089548
:101B7000A0E0B0E0EEEBFDE00C940A18DC012B01D4
:101B8000FA019C91923008F439C1EB0188818230CE
:101B900008F433C1943069F4843009F02FC11196F0
:101BA0009C9111978981981709F428C1AFE1B1E0A0
:101BB00025C1843009F421C18230A9F4923009F0A2
:101BC0001DC19A01AD0188E0EA010990AE01E90169
:101BD00009929E018150C1F7E201898111969C9181
:101BE0008923818308C1923009F407C112962D9090
:101BF0003C901397EB018A819B811496AD90BD9028
:101C0000CD90DC901797EC80FD800E811F819101B3
:101C1000281B390BB90137FF04C066277727621BE1
:101C2000730B603271050CF061C0121613066CF56F
:101C300037014801062E04C09694879477946794E0
:101C40000A94D2F721E030E040E050E004C0220FD7
:101C5000331F441F551F6A95D2F721503040404032
:101C600050402E213F2140235123211531054105AC
:101C7000510521F021E030E040E050E079018A0197
:101C8000E628F728082919293CC0232BD1F1260E74
:101C9000371E35014601062E04C09694879477942A
:101CA00067940A94D2F721E030E040E050E004C0AD
:101CB000220F331F441F551F6A95D2F72150304021
:101CC000404050402A213B214C215D212115310506
:101CD0004105510521F021E030E040E050E059019C
:101CE0006A01A628B728C828D9280BC082159305F1
:101CF0002CF01C01AA24BB24650103C0EE24FF24A0
:101D0000870111969C91D20111968C91981709F434
:101D100045C0992339F0A80197012A193B094C09BC
:101D20005D0906C0A60195012E193F09400B510B14
:101D300057FD08C011823382228224833583468373
:101D400057831DC081E081833382228288279927AF
:101D5000DC01821B930BA40BB50B84839583A683B4
:101D6000B7830DC0220F331F441F551F24833583B3
:101D70004683578382819381019793838283248151
:101D8000358146815781DA01C9010197A109B1095D
:101D90008F5F9F4FAF4FBF4328F30BC091833382B8
:101DA0002282EA0CFB1C0C1D1D1DE482F5820683B9
:101DB000178383E08083248135814681578157FFD3
:101DC0001AC0C901AA2797FDA095BA2F81709070FB
:101DD000A070B0705695479537952795822B932B19
:101DE000A42BB52B84839583A683B78382819381AB
:101DF000019693838283DF0101C0D201CD01CDB76B
:101E0000DEB7E2E10C942618A0E2B0E0EAE0FFE0E1
:101E10000C94161869837A838B839C832D833E836D
:101E20004F835887E9E0EE2EF12CEC0EFD1ECE011B
:101E30000196B7010E9489138E010F5E1F4FCE01DC
:101E40000596B8010E9489138A8991E089278A8BB7
:101E5000C701B801AE01475E5F4F0E94B80D0E94F6
:101E6000B412A096E6E00C943218A0E2B0E0EBE3E6
:101E7000FFE00C94161869837A838B839C832D83EF
:101E80003E834F835887F9E0EF2EF12CEC0EFD1EB8
:101E9000CE010196B7010E9489138E010F5E1F4F7C
:101EA000CE010596B8010E948913C701B801AE01A1
:101EB000475E5F4F0E94B80D0E94B412A096E6E004
:101EC0000C943218A0E2B0E0E8E6FFE00C940A18A7
:101ED00069837A838B839C832D833E834F835887CA
:101EE000CE010196BE01675F7F4F0E948913CE012C
:101EF0000596BE016F5E7F4F0E94891399859230CF
:101F000088F089898230C8F0943019F4823051F415
:101F100004C0843029F4923081F48FE191E0C6C08E
:101F2000923049F420E09A858A89981321E02A8723
:101F3000CE010996BBC0823049F420E09A858A8997
:101F4000981321E02A8BCE014196B0C02D843E84A7
:101F50004F8458886D887E888F88988CEE24FF2463
:101F60008701AA24BB24650140E050E060E070E0F6
:101F7000E0E0F0E0C10181709070892BE9F0E60C9F
:101F8000F71C081D191D9A01AB012A0D3B1D4C1DA4
:101F90005D1D80E090E0A0E0B0E0E614F7040805E5
:101FA000190520F481E090E0A0E0B0E0BA01A901B9
:101FB000480F591F6A1F7B1FAA0CBB1CCC1CDD1CC1
:101FC00097FE08C081E090E0A0E0B0E0A82AB92A1E
:101FD000CA2ADB2A3196E032F10549F0660C771CFB
:101FE000881C991C5694479437942794C3CFFA853C
:101FF000EA892B893C898B859C85280F391F2E5FA8
:102000003F4F17C0CA0181709070892B61F01695FF
:102010000795F794E79480E090E0A0E0B0E8E82A24
:10202000F92A0A2B1B2B76956795579547952F5FB5
:102030003F4F77FDE7CF0CC0440F551F661F771F3A
:1020400017FD4160EE0CFF1C001F111F2150304096
:10205000403090E0590790E0690790E4790760F319
:102060002B8F3C8FDB01CA018F779070A070B0700E
:1020700080349105A105B10561F447FD0AC0E11462
:10208000F1040105110529F0405C5F4F6F4F7F4F50
:1020900040781A8EFE1711F081E08A8F4D8F5E8F87
:1020A0006F8F78A383E0898FCE0149960E94B41286
:1020B000A096E2E10C942618A8E1B0E0E2E6F0E197
:1020C0000C94121869837A838B839C832D833E83BF
:1020D0004F835887B9E0EB2EF12CEC0EFD1ECE019C
:1020E0000196B7010E9489138E010F5E1F4FCE012A
:1020F0000596B8010E9489132985223008F47EC014
:102100003989323010F4B8017CC08A859A898927D0
:102110008A87243011F0223031F4231709F06EC081
:102120006FE171E06EC0343039F41D861E861F8663
:10213000188A1C861B8604C0323021F484E089870B
:10214000B7015FC02B853C858B899C89281B390B87
:102150003C872B87ED84FE840F851889AD88BE8867
:10216000CF88D88CEA14FB040C051D0540F4EE0C56
:10217000FF1C001F111F215030403C872B8720E09F
:1021800030E040E050E080E090E0A0E0B0E460E0CB
:1021900070E0EA14FB040C051D0540F0282B392BD8
:1021A0004A2B5B2BEA18FB080C091D09B695A7956D
:1021B00097958795EE0CFF1C001F111F6F5F7F4FD7
:1021C0006F31710531F7DA01C9018F779070A07016
:1021D000B07080349105A105B10561F427FD0AC0F6
:1021E000E114F1040105110529F0205C3F4F4F4F28
:1021F0005F4F20782D873E874F87588BBE01675FE2
:102200007F4FCB010E94B4126896EAE00C942E181E
:10221000A8E1B0E0EEE0F1E10C94161869837A834E
:102220008B839C832D833E834F83588789E0E82EE0
:10223000F12CEC0EFD1ECE010196B7010E94891310
:102240008E010F5E1F4FCE010596B8010E948913C3
:102250008985823040F08989823028F0C701B80131
:102260000E94011401C08FEF6896E6E00C943218CA
:10227000A8E1B0E0EEE3F1E10C94161869837A83EB
:102280008B839C832D833E834F83588789E0E82E80
:10229000F12CEC0EFD1ECE010196B7010E948913B0
:1022A0008E010F5E1F4FCE010596B8010E94891363
:1022B0008985823040F08989823028F0C701B801D1
:1022C0000E94011401C08FEF6896E6E00C9432186A
:1022D000A8E1B0E0EEE6F1E10C94161869837A8388
:1022E0008B839C832D833E834F83588789E0E82E20
:1022F000F12CEC0EFD1ECE010196B7010E94891350
:102300008E010F5E1F4FCE010596B8010E94891302
:102310008985823040F08989823028F0C701B80170
:102320000E94011401C081E06896E6E00C94321826
:10233000ACE0B0E0EEE9F1E10C941A1869837A831D
:102340008B839C83CE010196BE016B5F7F4F0E9401
:1023500089138D81823061F1823050F1843021F413
:102360008E81882351F12EC02F81388537FD20C002
:102370006E812F3131051CF06623F9F023C08EE108
:1023800090E0821B930B29853A854B855C8504C0C0
:1023900056954795379527958A95D2F76623B1F0DC
:1023A00050954095309521953F4F4F4F5F4F0EC050
:1023B00020E030E040E050E009C02FEF3FEF4FEF6A
:1023C0005FE704C020E030E040E050E8B901CA0116
:1023D0002C96E2E00C943618A8E0B0E0E2EFF1E1D0
:1023E0000C9412187B018C01611571058105910512
:1023F00019F482E0898360C083E089838EE1C82E6E
:10240000D12CDC82CB82ED82FE820F831887C8013B
:10241000B7010E946512FC013197F7FF3BC02227EC
:1024200033272E1B3F0B57016801022E04C0D694A0
:10243000C794B794A7940A94D2F740E050E060E0C4
:1024400070E081E090E0A0E0B0E004C0880F991F48
:10245000AA1FBB1F2A95D2F70197A109B1098E21A6
:102460009F21A023B1230097A105B10521F041E0F0
:1024700050E060E070E04A295B296C297D294D839A
:102480005E836F8378878EE190E08E1B9F0B9C8329
:102490008B8312C0309781F00E2E04C0EE0CFF1C0F
:1024A000001F111F0A94D2F7ED82FE820F83188756
:1024B000CE1ADF0ADC82CB821A82CE0101960E94FC
:1024C000B4122896EAE00C942E18EF92FF920F9324
:1024D0001F937B018C0180E0E81680E0F80681E024
:1024E000080780E0180788F48FEFE816F10401056B
:1024F000110531F028F088E090E0A0E0B0E017C0CE
:1025000080E090E0A0E0B0E012C080E0E81680E05B
:10251000F80680E0080781E0180728F088E190E0DD
:10252000A0E0B0E004C080E190E0A0E0B0E020E2F4
:1025300030E040E050E0281B390B4A0B5B0B04C035
:1025400016950795F794E7948A95D2F7F701E95D18
:10255000FE4F8081281B310941095109C9011F9192
:102560000F91FF90EF900895DF92EF92FF920F93FB
:102570001F93FC01E480F58006811781D180808162
:10258000823048F480E090E0A0E1B0E0E82AF92A47
:102590000A2B1B2BA5C0843009F49FC0823021F484
:1025A000EE24FF24870105C0E114F10401051105A3
:1025B00019F4E0E0F0E096C0628173819FEF623829
:1025C00079070CF05BC022E83FEF261B370B2A315E
:1025D00031052CF020E030E040E050E02AC0B801A6
:1025E000A701022E04C076956795579547950A94E2
:1025F000D2F781E090E0A0E0B0E004C0880F991F1E
:10260000AA1FBB1F2A95D2F70197A109B1098E21F4
:102610009F21A023B1230097A105B10521F081E0FE
:1026200090E0A0E0B0E09A01AB01282B392B4A2BB7
:102630005B2BDA01C9018F779070A070B070803485
:102640009105A105B10539F427FF09C0205C3F4F72
:102650004F4F5F4F04C0215C3F4F4F4F5F4FE0E053
:10266000F0E02030A0E03A07A0E04A07A0E45A07D3
:1026700010F0E1E0F0E079018A0127C060387105CF
:1026800064F5FB01E158FF4FD801C7018F779070C7
:10269000A070B07080349105A105B10539F4E7FE52
:1026A0000DC080E490E0A0E0B0E004C08FE390E0D3
:1026B000A0E0B0E0E80EF91E0A1F1B1F17FF05C0BF
:1026C00016950795F794E794319687E01695079548
:1026D000F794E7948A95D1F705C0EE24FF2487018B
:1026E000EFEFF0E06E2F679566276795902F9F7745
:1026F000D794DD24D7948E2F8695492F462B582FBB
:102700005D29B701CA011F910F91FF90EF90DF90F3
:102710000895FC01DB01408151812281622F6F7796
:1027200070E0221F2227221F9381892F880F822B7E
:10273000282F30E0991F9927991F11969C93119784
:1027400021153105A9F5411551056105710511F4F2
:1027500082E037C082E89FEF13969C938E93129786
:102760009A01AB0167E0220F331F441F551F6A9582
:10277000D1F783E08C930DC0220F331F441F551FE8
:1027800012968D919C911397019713969C938E931B
:102790001297203080E0380780E0480780E458072F
:1027A00058F314962D933D934D935C93179708958A
:1027B0002F3F310579F4411551056105710519F473
:1027C00084E08C93089564FF03C081E08C9312C071
:1027D0001C9210C02F57304013963C932E931297A3
:1027E00083E08C9387E0440F551F661F771F8A95FF
:1027F000D1F7706414964D935D936D937C93179706
:1028000008951F93DC01FB019C91923008F447C0AE
:102810008081823008F443C0943051F411961C91A9
:10282000843099F58181682F70E0611B71093FC088
:10283000843021F0923031F48230B9F181818823E3
:1028400089F12DC011961C9111978230F1F0818190
:102850001817D9F412962D913C9113978281938188
:102860008217930794F028173907BCF014968D91BE
:102870009D910D90BC91A02D248135814681578179
:10288000281739074A075B0718F4112341F00AC0DB
:1028900082179307A407B50740F4112319F061E0EC
:1028A00070E005C06FEF7FEF02C060E070E0CB0129
:1028B0001F9108952F923F924F925F926F927F9255
:1028C0008F929F92AF92BF92CF92DF92EF92FF9240
:1028D0000F931F93DF93CF93CDB7DEB761970FB6FA
:1028E000F894DEBF0FBECDBF3C017F876E876A01C3
:1028F000FC0117821682838181FD03C06FEF7FEF99
:102900006FC39E012F5F3F4F398B288BF3012381CB
:10291000EE85FF8523FD859123FF8191FF87EE875B
:10292000882309F45AC3853251F4EE85FF8523FDCF
:10293000859123FF8191FF87EE87853229F490E00E
:10294000B3010E942F19E2CF982F10E08824992418
:102950001032B0F49B3269F09C3228F4903251F07E
:10296000933271F40BC09D3239F0903349F4116009
:1029700028C01260146025C0186023C0106121C0F7
:1029800017FD2AC0892F80538A3078F416FF06C0BD
:10299000FAE09F9E902C1124980E13C03AE0839E7B
:1029A000802C1124880E10620CC09E3221F416FD7A
:1029B00014C3106406C09C3611F4106802C0983627
:1029C00059F4EE85FF8523FD959123FF9191FF87B3
:1029D000EE87992309F0BCCF892F8554833020F4EA
:1029E000812F8061905E07C0892F8556833008F063
:1029F0009FC1812F8F7E86FD02C076E0972E6FE308
:102A0000F62EF822953619F4F0E4FF2A07C0963620
:102A100019F420E8F22A02C091109A94F7FE0AC035
:102A20003BE3391518F45CE3B52E02C0B92CB3941E
:102A300027E009C047E0491520F4BB2447E0942E65
:102A4000F7CF292DBB24C60104969D878C87F601FC
:102A50006081718182819381AE014F5F5F4F0B2D49
:102A60000E9441186C010981202E332400FF04C00C
:102A700003FD02C01DE209C0F1FE02C01BE205C059
:102A8000F2FC02C010E001C010E2C1018C70907035
:102A9000892BB9F1112311F483E001C084E088157A
:102AA00010F088240AC0881AF3FC07C080E290E086
:102AB000B3010E942F198A94C9F7112329F0812F9D
:102AC00090E0B3010E942F1923FE03C00CE810E030
:102AD0000EC000E910E00BC0E114F10409F08052CF
:102AE00090E0B3010E942F190F5F1F4F05C0EF2C1C
:102AF000FF24F0E1EF22FF24F8018491882361F79D
:102B000014C1F7FE12C0BC0C24FE04C08A818133BC
:102B100009F4BA941B141CF0BB24B3942DC0F8E044
:102B2000FB1550F538E0B32E27C0F6FC25C0892DE3
:102B300090E08C159D054CF02CEFC2162FEFD206BD
:102B400024F030E8F32A01C09A94992049F0E2E099
:102B5000F0E0EC0FFD1FE90DF11D80818033A1F342
:102B6000F7FE0AC0B92CB394892D90E0C816D90697
:102B700014F0992401C09C18F7FC03C025E030E054
:102B800009C01C141D041CF021E030E003C09601B4
:102B90002F5F3F4F112311F02F5F3F4F992029F0F6
:102BA000892D90E00196280F391F882D90E0281775
:102BB000390714F0882401C0821A4F2C5524C20111
:102BC00089709070892B39F008C080E290E0B301E1
:102BD0000E942F198A948820C1F7112329F0812F90
:102BE00090E0B3010E942F1943FE07C008C080E3A4
:102BF00090E0B3010E942F198A948820C1F7F7FE54
:102C000046C08601D7FE02C000E010E076010894BD
:102C1000E11CF11CE01AF10A41E050E04C0F5D1F8D
:102C2000E40EF51E26014B185108892D90E0AA24C8
:102C3000BB24A81AB90A5FEF0F3F150729F48EE2EB
:102C400090E0B3010E942F19C016D10634F040164F
:102C500051061CF4F701808101C080E3015010404F
:102C60000894E11CF11C0A151B052CF090E0B3013F
:102C70000E942F19E0CF0C151D0539F49A81963367
:102C800018F4953311F424FE81E390E04BC08A815F
:102C9000813309F00F7E90E0B3010E942F19992033
:102CA000A1F08EE290E0B3010E942F1912E0E1E062
:102CB000F0E0EC0FFD1FE10FF11D1F5F808190E040
:102CC000B3010E942F199A9491F744FC03C085E642
:102CD00090E002C085E490E0B3010E942F19D7FC78
:102CE00005C0C114D10441F404FF06C0D094C194BE
:102CF000D108D3948DE201C08BE290E0B3010E9431
:102D00002F1980E305C08F5F26EF3FEFC20ED31E61
:102D10003AE0C316D104BCF790E0B3010E942F192A
:102D2000C601C096B3010E942F19CC84DD8452C124
:102D3000933631F0933799F0933509F059C023C099
:102D4000F601808189835E010894A11CB11C22E0F8
:102D500030E0C20ED31E21E0E22EF12C12C0F601AB
:102D6000A080B18016FD03C06FEF7FEF02C0692D18
:102D700070E022E030E0C20ED31EC5010E9424198B
:102D80007C011F7713C0F601A080B18016FD03C03F
:102D90006FEF7FEF02C0692D70E022E030E0C20EDD
:102DA000D31EC5010E9419197C01106813FF07C0CA
:102DB0001BC080E290E0B3010E942F198A94882DF5
:102DC00090E0E816F906A8F30FC0F50117FD85910C
:102DD00017FF81915F0190E0B3010E942F198110CC
:102DE0008A940894E108F108E114F10471F7F2C043
:102DF000943611F0993689F517FF08C0F601208145
:102E000031814281538184E090E00AC0F6018081E3
:102E100091819C01442737FD4095542F82E090E03A
:102E2000C80ED91E9FE6F92EF12257FF09C0509512
:102E30004095309521953F4F4F4F5F4F90E8F92ACD
:102E4000CA01B901AE014F5F5F4F2AE030E00E9436
:102E50008C19E82EE889EE1A41C0953721F41F7EBF
:102E60002AE030E01CC0197F9F3661F0903720F4D3
:102E7000983509F0B2C00FC0903739F0983709F093
:102E8000ACC004C028E030E00AC0106114FD14603A
:102E900020E130E004C014FD166020E132E017FFAD
:102EA00008C0F601608171818281938144E050E025
:102EB00008C0F60180819181BC0180E090E042E091
:102EC00050E0C40ED51EAE014F5F5F4F0E948C19BB
:102ED000E82E5889E51A8FE7F82EF122F6FE0BC08E
:102EE0008EEFF822E91438F4F4FE07C0F2FC05C0B6
:102EF0009FEEF92202C01E2D01C0192DF4FE0DC057
:102F0000FE01EE0DF11D8081803319F4E9EEFE2201
:102F100008C01F5FF2FE05C003C08F2D867809F040
:102F20001F5F0F2DF3FC14C0F0FE0FC0181510F03A
:102F30009E2C0BC09E2C980C911A182D06C080E276
:102F400090E0B3010E942F191F5F1815C0F304C051
:102F5000181510F4811A01C0882404FF0FC080E303
:102F600090E0B3010E942F1902FF1DC001FD03C0B4
:102F700088E790E00EC088E590E00BC0802F86784F
:102F800091F001FF02C08BE201C080E2F7FC8DE20C
:102F900090E0B3010E942F1906C080E390E0B301D6
:102FA0000E942F199A94E914C0F3EA94E1E0F0E04A
:102FB000EC0FFD1FEE0DF11D808190E0B3010E942A
:102FC0002F19EE2091F706C080E290E0B3010E9435
:102FD0002F198A948820C1F799CCF30166817781F3
:102FE000CB0161960FB6F894DEBF0FBECDBFCF9177
:102FF000DF911F910F91FF90EF90DF90CF90BF90E6
:10300000AF909F908F907F906F905F904F903F9088
:103010002F9008952F923F924F925F926F927F92DE
:103020008F929F92AF92BF92CF92DF92EF92FF92D8
:103030000F931F93CF93DF93CDB7DEB7CA1BDB0B84
:103040000FB6F894DEBF0FBECDBF09942A88398829
:1030500048885F846E847D848C849B84AA84B98430
:10306000C884DF80EE80FD800C811B81AA81B9813C
:10307000CE0FD11D0FB6F894DEBF0FBECDBFED0150
:103080000895283008F027E03327DA01990F311D21
:1030900087FD916000966105710539F432602E5FFD
:1030A0003D9330E32A95E1F708959F3F30F0803853
:1030B0007105610509F03C5F3C5F3D93913008F07C
:1030C0008068911DDF93CF931F930F93FF92EF9230
:1030D000192F987F9695E92F96959695E90FFF27DA
:1030E000E352FD4F99273327EE24FF24A701E70180
:1030F00005900894079428F4360FE71EF81E491F20
:10310000511D660F771F881F991F0694A1F7059020
:10311000079428F4E70EF81E491F561FC11D770FAC
:10312000881F991F661F0694A1F70590079428F43D
:10313000F80E491F561FC71FD11D880F991F661F04
:10314000771F0694A1F70590079420F4490F561FA6
:10315000C71FD81F990F661F771F881F0694A9F7EE
:1031600084911095177041F0D695C795579547955E
:10317000F794E7941A95C1F7E3E8F2E068941590A4
:10318000159135916591959105907FE27395E118C0
:10319000F10A430B560BC90BD009C0F7E10CF11E25
:1031A000431F561FC91FD01D7EF4703311F48A953A
:1031B000E6CFE894015030F0080F0AF40027021718
:1031C00008F4202F2395022F7A3328F079E37D939A
:1031D0002A95E9F710C07D932A9589F6069497956C
:1031E0006795379517951794E118F10A430B560B1D
:1031F000C90BD00998F023957E9173957A3308F026
:1032000070E37C932013B8F77E9170617D9330F06A
:10321000839571E37D9370E32A95E1F71124EF9094
:10322000FF900F911F91CF91DF91992787FD909586
:103230000895FC010590615070400110D8F7809509
:1032400090958E0F9F1F0895FC0161507040019072
:103250000110D8F7809590958E0F9F1F08950F93BA
:103260001F93CF93DF938C01EB018B8181FF1BC0F8
:1032700082FF0DC02E813F818C819D8128173907E7
:1032800064F4E881F9810193F983E88306C0E88555
:10329000F985802F0995892B31F48E819F810196C4
:1032A0009F838E8302C00FEF1FEFC801DF91CF9184
:1032B0001F910F9108950F931F93DF93CF93CDB775
:1032C000DEB72E970FB6F894DEBF0FBECDBF0D89C7
:1032D0001E8986E08C831A8309838FEF9FE79E8384
:1032E0008D839E01275E3F4FCE0101966F89788DB9
:1032F000A9010E945A142F813885020F131FF8016B
:1033000010822E960FB6F894DEBF0FBECDBFCF91C0
:10331000DF911F910F910895FA01AA27283051F1EA
:10332000203181F1E8946F936E7F6E5F7F4F8F4FF6
:103330009F4FAF4FB1E03ED0B4E03CD0670F781F55
:10334000891F9A1FA11D680F791F8A1F911DA11D3A
:103350006A0F711D811D911DA11D20D009F4689473
:103360003F912AE0269F11243019305D3193DEF61B
:10337000CF010895462F4770405D4193B3E00FD0D1
:10338000C9F7F6CF462F4F70405D4A3318F0495DBC
:1033900031FD4052419302D0A9F7EACFB4E0A6959F
:1033A0009795879577956795BA95C9F700976105C1
:1033B000710508959B01AC010A2E06945795479517
:1033C00037952795BA95C9F7620F731F841F951F0C
:0833D000A01D0895F894FFCF41
:1033D800583D252E3266205600593D252E3266204E
:1033E800560020202020202020202020002000001F
:1033F80000000000000000000102020303030304B0
:10340800040404040404040505050505050505056B
:10341800050505050505050606060606060606064B
:103428000606060606060606060606060606060634
:10343800060606060606060707070707070707071B
:103448000707070707070707070707070707070704
:1034580007070707070707070707070707070707F4
:1034680007070707070707070707070707070707E4
:1034780007070707070707080808080808080808CB
:1034880008080808080808080808080808080808B4
:1034980008080808080808080808080808080808A4
:1034A8000808080808080808080808080808080894
:1034B8000808080808080808080808080808080884
:1034C8000808080808080808080808080808080874
:1034D8000808080808080808080808080808080864
:1034E8000808080808080808080808080808080854
:0834F800080808080808080094
:00000001FF
